:040000001FEF1AF0E4
:1000080000C018F001C017F002C016F003C015F0C8
:10001800E1CF1BF0E2CF1CF0E9CF19F0EACF1AF0DC
:10002800590E0401DE6F040EDF6F51EC14F09EAA26
:100038001BD0190E03010925E16E030E0A21E26E99
:10004800AECFE6FF010E0925006E000E0A21016EF3
:1000580000C009F301C00AF3ABA203D0AB980000BB
:10006800AB88010E0101F36F9EA007D00201FE2BA1
:100078009E903C0ECF6EB00ECE6E18C000F017C02A
:1000880001F016C002F015C003F019C0E9FF1AC04C
:0C009800EAFF1BC0E1FF1CC0E2FF1100EA
:0A00A4000000000000000000120040
:0C00AE00420E0D6E0D2EFED70000120059
:1000BA001D0E0C6E910E0D6E0D2EFED70C2EFCD75A
:0200CA00120022
:1000CC000401DDBF02D0819401D08184DDBD02D05A
:1000DC00819601D08186DDBB02D0819801D08188C8
:1000EC00DDB902D0819A01D0818A0201F2B102D02D
:1000FC00828201D082928280CFDF82900401DDB7B0
:10010C0002D0819401D08184DDB502D0819601D0DA
:10011C008186DDB302D0819801D08188DDB102D017
:10012C00819A01D0818A0201F2B102D0828201D07F
:10013C0082928280B1DF8290F2A102D0B8DF01D02E
:04014C00B0DF12000E
:0E0150000201F291DCC4DDF4B9DFF28112008D
:10015E000401DC51390806E3300EDC5D03E3010EC9
:08016E00006E01D0006A1200CE
:100176000B6A0A6A096A086A0E6A0334083604506A
:10018600085E0550D8A0053C095E0650D8A0063C7E
:100196000A5E0750D8A0073C0B5EE86AD8A0010E9D
:1001A6000E5E0336070E0C6E0334083609360A3621
:1001B6000B360E36045003A012D0085E0550D8A0A8
:1001C600053C095E0650D8A0063C0A5E0750D8A03A
:1001D600073C0B5EE86AD8A0010E0E5E11D0082619
:1001E6000550D8B0053C09260650D8B0063C0A266C
:1001F6000750D8B0073C0B26E86AD8B0010E0E2689
:1002060003360C2ED1D70234083609360A360B3699
:100216000E36045003A012D0085E0550D8A0053C47
:10022600095E0650D8A0063C0A5E0750D8A0073CD7
:100236000B5EE86AD8A0010E0E5E11D008260550A6
:10024600D8B0053C09260650D8B0063C0A26075009
:10025600D8B0073C0B26E86AD8B0010E0E26023647
:10026600070E0C6E0234083609360A360B360E3681
:10027600045002A012D0085E0550D8A0053C095EC5
:100286000650D8A0063C0A5E0750D8A0073C0B5E75
:10029600E86AD8A0010E0E5E11D008260550D8B027
:1002A600053C09260650D8B0063C0A260750D8B0A9
:1002B600073C0B26E86AD8B0010E0E2602360C2E35
:1002C600D1D70134083609360A360B360E360450B5
:1002D60002A012D0085E0550D8A0053C095E065063
:1002E600D8A0063C0A5E0750D8A0073C0B5EE86A19
:1002F600D8A0010E0E5E11D008260550D8B0053CD8
:1003060009260650D8B0063C0A260750D8B0073C46
:100316000B26E86AD8B0010E0E260136070E0C6EC3
:100326000134083609360A360B360E36045001A05B
:1003360012D0085E0550D8A0053C095E0650D8A02C
:10034600063C0A5E0750D8A0073C0B5EE86AD8A0B8
:10035600010E0E5E11D008260550D8B0053C0926C0
:100366000650D8B0063C0A260750D8B0073C0B26E4
:10037600E86AD8B0010E0E2601360C2ED1D700340D
:10038600083609360A360B360E36045001A012D04E
:10039600085E0550D8A0053C095E0650D8A0063C6C
:1003A6000A5E0750D8A0073C0B5EE86AD8A0010E8B
:1003B6000E5E11D008260550D8B0053C0926065019
:1003C600D8B0063C0A260750D8B0073C0B26E86A88
:1003D600D8B0010E0E260036070E0C6E0034083615
:1003E60009360A360B360E36045000A012D0085EC7
:1003F6000550D8A0053C095E0650D8A0063C0A5E0A
:100406000750D8A0073C0B5EE86AD8A0010E0E5E26
:1004160011D008260550D8B0053C09260650D8B09C
:10042600063C0A260750D8B0073C0B26E86AD8B027
:10043600010E0E2600360C2ED1D700B00ED0045079
:1004460008260550D8B0053C09260650D8B0063C0B
:0C0456000A260750D8B0073C0B26120005
:100462000B6A0A6A096A00500402F4CF09F0F3CF5A
:1004720008F001500502F4CF0BF0F3CF0AF0005060
:100482000502F3500926F4500A22E86A0B220150B1
:100492000402F3500926F4500A22E86A0B2208C02B
:1004A20000F009C001F00AC002F00BC003F0120014
:1004B200086A096A100E0C6E0134083609360450B7
:1004C200085E0550D8A0053C095ED8B007D004509C
:1004D20008260550D8B0053C0926D89000360136CA
:0604E2000C2EEAD7120007
:1004E800030E0C6E950E0D6E0D2EFED70C2EFCD73E
:0204F8001200F0
:1004FA0010D0800E0401C36F1AD0C00EC36F17D07C
:10050A00940EC36F14D0D40EC36F11D0800EC36F74
:10051A000ED00401C351010AECE0C351020AEDE016
:10052A00C351030AEDE0C351040AEDE0EFD7C40555
:10053A00006EC351002600C0C3F400C0DDF4C1DD63
:10054A00F2910401C76BC751C525E96E000EC62199
:10055A00EA6EEE520CE0C751C525E96E000EC621BF
:10056A00EA6EEECFDCF4EFDD0401C72BECD7020113
:04057A00F2811200F8
:10057E0010D0800E0401C36F1AD0C00EC36F17D0F7
:10058E00940EC36F14D0D40EC36F11D0800EC36FF0
:10059E000ED00401C351010AECE0C351020AEDE092
:1005AE00C351030AEDE0C351040AEDE0EFD7C405D1
:1005BE00006EC351002600C0C3F40201F28100C0D8
:1005CE00DDF47DDDF291C5C4DDF479DDF28112003A
:1005DE000401D96BDA6BD36BD46BC5C400F0C6C4FF
:1005EE0001F0C7C402F0010EC527000EC623C723B3
:1005FE0000C0F6FF01C0F7FF02C0F8FF0900F5CFFB
:10060E0000F000C0D0F40052D8B421EF0AF0D0515F
:10061E00250A0BE0C3C4E1FFC4C4E2FFD0C4E6FF69
:10062E00C34BC42BD94BDA2BD8D7D16BD26BD36B30
:10063E00D46B23D0D387010EC527000EC623C72344
:10064E0059D0D381010EC527000EC623C72352D021
:10065E00D383010EC527000EC623C7234BD0D487E4
:10066E00010EC527000EC623C72344D0D385010E25
:10067E00C527000EC623C7233DD0C5C4F6FFC6C48A
:10068E00F7FFC7C4F8FF0900F5CF01F001502D0A9E
:10069E00D1E0C5C4F6FFC6C4F7FFC7C4F8FF090012
:1006AE00F5CF01F00150200ACCE0C5C4F6FFC6C458
:1006BE00F7FFC7C4F8FF0900F5CF01F001502B0A70
:1006CE00C7E0C5C4F6FFC6C4F7FFC7C4F8FF0900EC
:1006DE00F5CF01F00150230AC2E0C5C4F6FFC6C42F
:1006EE00F7FFC7C4F8FF0900F5CF01F00150300A3B
:1006FE00BDE001D09ED7D3A301D0D391D3A701D013
:10070E00D395C5C4F6FFC6C4F7FFC7C4F8FF0900EA
:10071E00F5CF00F0000E016E00C0DCF419DD0052C2
:10072E0034E0D16BD26BD1C400F0D2C401F00A0E0A
:10073E00046E000E056E8EDEC5C4F6FFC6C4F7FF4E
:10074E00C7C4F8FF0900F5CF02F002500024D16FA4
:10075E00000E0120D26F300ED15F000ED25B010E63
:10076E00C527000EC623C723C5C4F6FFC6C4F7FFB0
:10077E00C7C4F8FF0900F5CF00F0000E016E00C0EF
:10078E00DCF4E6DC0052CFE133D0C5C4F6FFC6C4BC
:10079E00F7FFC7C4F8FF0900F5CF01F001502A0A90
:1007AE0027E1C8C4E9FFC9C4EAFFEECF00F0EECFDF
:1007BE0001F000C0E9FF01C0EAFFEECFD1F4EECFA9
:1007CE00D2F4C8C4E9FFC9C4EAFF020EEE24006EDB
:1007DE00000EEE20016EC8C4E1FFC9C4E2FF00C0E6
:1007EE00E6FF01C0E6FF010EC527000EC623C72394
:1007FE00C5C4F6FFC6C4F7FFC7C4F8FF0900F5CF9E
:10080E0001F001502E0A6EE1010EC527000EC6231F
:10081E00C723C5C4F6FFC6C4F7FFC7C4F8FF090057
:10082E00F5CF01F001502A0A28E1C8C4E9FFC9C476
:10083E00EAFFEECF00F0EECF01F000C0E9FF01C0FD
:10084E00EAFFEECFCEF4EECFCFF4C8C4E9FFC9C4B1
:10085E00EAFF020EEE24006E000EEE20016EC8C4FA
:10086E00E1FFC9C4E2FF00C0E6FF01C0E6FF010ED2
:10087E00C527000EC623C72334D0CE6BCF6BC5C49D
:10088E00F6FFC6C4F7FFC7C4F8FF0900F5CF00F0A6
:10089E00000E016E00C0DCF45BDC005222E0CEC420
:1008AE0000F0CFC401F00A0E046E000E056ED2DD0C
:1008BE00C5C4F6FFC6C4F7FFC7C4F8FF0900F5CFDD
:1008CE0002F002500024CE6F000E0120CF6F300ECA
:1008DE00CE5F000ECF5B010EC527000EC623C723C9
:1008EE00CED702D0CE6BCF6BC5C400F0C6C401F01C
:1008FE00C7C402F0010EC527000EC623C72300C0D1
:10090E00F6FF01C0F7FF02C0F8FF0900F5CFD0F4E3
:10091E00F9D0D9C400F0DAC401F025EF0AF0D3897A
:10092E00E3D7230ED56F010ED66FCE6BCF6B28D0CB
:10093E00D38D27D126D1D38BD38F23D1C8C4E9FF32
:10094E00C9C4EAFFEECF00F0EECF01F000C0E9FF20
:10095E0001C0EAFFEECFD5F4EECFD6F4C8C4E9FF5E
:10096E00C9C4EAFF020EEE24006E000EEE20016EE8
:10097E00C8C4E1FFC9C4E2FF00C0E6FF01C0E6FF44
:10098E00000ED61902E1000ED51904E1340ED56F12
:10099E00010ED66FD76BD86BD751D525E96ED851CE
:1009AE00D621EA6EEE520BE0010ED725006E000E38
:1009BE00D821016E00C0D7F401C0D8F4EDD7CE51C6
:1009CE00CF110AE0D851CF5D02E1D751CE5D04E2DE
:1009DE00CEC4D7F4CFC4D8F4D251D85D02E1D151F0
:1009EE00D75D05E2D751D15FD851D25B02D0D16B22
:1009FE00D26BD3B716D0D1C400F0D2C401F0010E21
:100A0E00D15F000ED25B005001100BE0C3C4E1FFBA
:100A1E00C4C4E2FF200EE66EC34BC42BD94BDA2BB7
:100A2E00EAD7D7C402F0D8C403F0010ED75D006E2A
:100A3E00000ED859016E00C0D7F401C0D8F4025090
:100A4E00031019E0D5C4E9FFD6C4EAFFC3C4E1FF21
:100A5E00C4C4E2FFEECFE6FFC34BC42B010ED52577
:100A6E00006E000ED621016E00C0D5F401C0D6F482
:100A7E00D94BDA2BD6D7D3A716D0D1C400F0D2C417
:100A8E0001F0010ED15F000ED25B005001100BE0A1
:100A9E00C3C4E1FFC4C4E2FF200EE66EC34BC42BF9
:100AAE00D94BDA2BEAD799D5C8C4E9FFC9C4EAFFF6
:100ABE00EECF00F0EECF01F000C0E9FF01C0EAFF7B
:100ACE00EECFD0F4C8C4E9FFC9C4EAFF020EEE248B
:100ADE00006E000EEE20016EC8C4E1FFC9C4E2FF35
:100AEE0000C0E6FF01C0E6FFD00ED56F040ED66F34
:100AFE00010ED76F000ED86F62D7C00ED313000E43
:100B0E00D4133FD0D051000AD8B403D7D0516C0AB9
:100B1E00D8B405D7D0514C0AD8B401D7D051450A14
:100B2E00D8B4FFD6D051660AD8B4FBD6D051650AD8
:100B3E00D8B4F7D6D051670AD8B4F3D6D0516F0ACD
:100B4E00D8B4F6D6D051640AD8B4F4D6D051690AC6
:100B5E00D8B4F0D6D051700AD8B4EDD6D051580AC8
:100B6E00D8B4E9D6D051780AD8B4E6D6D051730AA3
:100B7E00D8B4E4D6D051630A97E0D051750ABDE0DF
:100B8E00B3D7C00ED315016ED4C402F0000E0216F8
:100B9E00000E021802E1000E0118D8A480D0D3A9CD
:100BAE0027D0C8C4E9FFC9C4EAFFEECF00F0EECFEC
:100BBE0001F000C0E9FF01C0EAFFEECFD5F4EECFA1
:100BCE00D6F4EECFD7F4EECFD8F4C8C4E9FFC9C43B
:100BDE00EAFF040EEE24006E000EEE20016EC8C475
:100BEE00E1FFC9C4E2FF00C0E6FF01C0E6FF2FD05F
:100BFE00C8C4E9FFC9C4EAFFEECF00F0EECF01F0A2
:100C0E0000C0E9FF01C0EAFFEECF00F0EECF01F029
:100C1E00000E01BEFF0E026E036E00C0D5F401C0C1
:100C2E00D6F402C0D7F403C0D8F4C8C4E9FFC9C4CF
:100C3E00EAFF020EEE24006E000EEE20016EC8C416
:100C4E00E1FFC9C4E2FF00C0E6FF01C0E6FF800E6F
:100C5E00D819006E800E005C08E1000ED75D05E12C
:100C6E00000ED65D02E1000ED55D18E2030ED31321
:100C7E00000ED413006A016A026A036AD551005E3F
:100C8E00D651015AD751025AD851035A00C0D5F441
:100C9E0001C0D6F402C0D7F403C0D8F44ED0D3A905
:100CAE0027D0C8C4E9FFC9C4EAFFEECF00F0EECFEB
:100CBE0001F000C0E9FF01C0EAFFEECFD5F4EECFA0
:100CCE00D6F4EECFD7F4EECFD8F4C8C4E9FFC9C43A
:100CDE00EAFF040EEE24006E000EEE20016EC8C474
:100CEE00E1FFC9C4E2FF00C0E6FF01C0E6FF25D068
:100CFE00C8C4E9FFC9C4EAFFEECF00F0EECF01F0A1
:100D0E0000C0E9FF01C0EAFFEECFD5F4EECFD6F476
:100D1E00000ED76FD86FC8C4E9FFC9C4EAFF020E30
:100D2E00EE24006E000EEE20016EC8C4E1FFC9C4B1
:100D3E00E2FF00C0E6FF01C0E6FF000ECF1902E1A0
:100D4E00000ECE190FE1000E006ED81908E100500A
:100D5E00D71905E10050D61902E1D551000A02E17A
:100D6E00CE4BCF2BC00ED315006E00C005F0AED00B
:100D7E00010ED06FD0510A0A34E0D0C400F0000E3C
:100D8E00016E026E036E0036009001360236033697
:100D9E0000360090013602360336FB0E0024F66E46
:100DAE00380E0120F76E000E0220F86E0900F5CF06
:100DBE0001F00900F5CF02F00900F5CF03F00900AC
:100DCE00F5CF04F00450D85D08E10350D75D05E17E
:100DDE000250D65D02E10150D55D01E202D0D02B6A
:100DEE00C9D782D0010ED06FD051080A34E0D0C4DA
:100DFE0000F0000E016E026E036E0036009001369A
:100E0E000236033600360090013602360336230EC4
:100E1E000024F66E390E0120F76E000E0220F86ED9
:100E2E000900F5CF01F00900F5CF02F00900F5CF6A
:100E3E0003F00900F5CF04F00450D85D08E103502B
:100E4E00D75D05E10250D65D02E10150D55D01E2AC
:100E5E0002D0D02BC9D748D0010ED06FD0510C0A7A
:100E6E0034E0D0C400F0000E016E026E036E003648
:100E7E0000900136023603360036009001360236F7
:100E8E000336CB0E0024F66E380E0120F76E000EE0
:100E9E000220F86E0900F5CF01F00900F5CF02F03F
:100EAE000900F5CF03F00900F5CF04F00450D85D2A
:100EBE0008E10350D75D05E10250D65D02E1015015
:100ECE00D55D01E202D0D02BC9D70ED00550000A55
:100EDE00D8B44ED70550C00AD8B44AD70550800AA8
:100EEE0081E00550400AB8E0800E006E800ECF19EA
:100EFE00005C02E1CE51D05D03E2CEC4D0F40DD041
:100F0E00800ECF19006E800E005C02E1D051CE5DD6
:100F1E0004E2D0C4CEF4000ECF6FD151D2110EE048
:100F2E00030ED315006ED4C401F0000E011600504E
:100F3E00011004E0010ED15F000ED25B800ECF19BE
:100F4E00006E800ED219005C02E1D151CE5D05E239
:100F5E00CE51D15FCF51D25B02D0D16BD26BC40ECA
:100F6E00D315016ED451080B026E0250080A02E12D
:100F7E00400E011808E1D151D21104E0010ED15FEB
:100F8E00000ED25B1CD0C00ED315016ED451080BCF
:100F9E00026E0250080A02E1800E011810E1800E66
:100FAE00006E800ED219005C02E1D151020805E2FA
:100FBE00020ED15F000ED25B02D0D16BD26BD3A5E5
:100FCE005DD0D3A312D0D3A103D02D0ECA6F02D001
:100FDE002B0ECA6FC3C4E1FFC4C4E2FFCAC4E6FF4E
:100FEE00C34BC42BD94BDA2B34D0D3A10BD0C3C4F3
:100FFE00E1FFC4C4E2FF200EE66EC34BC42BD94BF7
:10100E00DA2B27D0C00ED315016ED451080B026E09
:10101E000250080A02E1800E01181BE1C3C4E1FF71
:10102E00C4C4E2FF300EE66EC34BC42BD94BDA2B91
:10103E00D3AB03D0580ECB6F02D0780ECB6FC3C498
:10104E00E1FFC4C4E2FFCBC4E6FFC34BC42BD94BB4
:10105E00DA2BD151D21111E0C3C4E1FFC4C4E2FFB7
:10106E00300EE66EC34BC42BD94BDA2B010ED15F7B
:10107E00000ED25BD151D211EFE174D0D151D21109
:10108E0013E0D3B711D0C3C4E1FFC4C4E2FF200EF6
:10109E00E66EC34BC42BD94BDA2B010ED15F000E7B
:1010AE00D25BD151D211EFE1D3A312D0D3A103D091
:1010BE002D0ECC6F02D02B0ECC6FC3C4E1FFC4C477
:1010CE00E2FFCCC4E6FFC34BC42BD94BDA2B0CD0BA
:1010DE00D3A10AD0C3C4E1FFC4C4E2FF200EE66E62
:1010EE00C34BC42BD94BDA2BC00ED315016ED45182
:1010FE00080B026E0250080A02E1400E01180BE1C5
:10110E00C3C4E1FFC4C4E2FF300EE66EC34BC42B72
:10111E00D94BDA2B27D0C00ED315016ED451080B44
:10112E00026E0250080A02E1800E01181BE1C3C4D0
:10113E00E1FFC4C4E2FF300EE66EC34BC42BD94BA5
:10114E00DA2BD3AB03D0580ECD6F02D0780ECD6F05
:10115E00C3C4E1FFC4C4E2FFCDC4E6FFC34BC42B3E
:10116E00D94BDA2B800E006E800ECF19005C02E197
:10117E00CE51D05D0BE2C3C4E1FFC4C4E2FF300E1A
:10118E00E66EC34BC42BD94BDA2BECD7CEC400F092
:10119E00CFC401F0010ECE5F000ECF5B00500110E8
:1011AE00D8B42AD1C00ED315006E00C0DBF40AD11C
:1011BE00CEC400F0CFC401F0000ECFBFFF0E026E02
:1011CE00036E00360090013602360336003600906C
:1011DE00013602360336FB0E0024F66E380E012061
:1011EE00F76E000E0220F86E0900F5CF04F009002C
:1011FE00F5CF05F00900F5CF06F00900F5CF07F0A1
:10120E00D5C400F0D6C401F0D7C402F0D8C403F0A0
:10121E00BBEC00F00A0E046E000E056E066E076E35
:10122E00BBEC00F008C000F009C001F00AC002F0EB
:10123E000BC003F0300E0024D06FD3D0D3AB45D00B
:10124E00CEC400F0CFC401F0000ECFBFFF0E026E71
:10125E00036E0036009001360236033600360090DB
:10126E00013602360336230E0024F66E390E0120A7
:10127E00F76E000E0220F86E0900F5CF04F009009B
:10128E00F5CF05F00900F5CF06F00900F5CF07F010
:10129E00D5C400F0D6C401F0D7C402F0D8C403F010
:1012AE00BBEC00F00F0E0016000E01160216031610
:1012BE00430E0024F66E390E0120F76E000E02204A
:1012CE00F86E0900F5CFD0F444D0CEC400F0CFC4F0
:1012DE0001F0000ECFBFFF0E026E036E00360090BF
:1012EE0001360236033600360090013602360336DA
:1012FE00230E0024F66E390E0120F76E000E02202A
:10130E00F86E0900F5CF04F00900F5CF05F00900DD
:10131E00F5CF06F00900F5CF07F0D5C400F0D6C41E
:10132E0001F0D7C402F0D8C403F0BBEC00F00F0EEE
:10133E000016000E011602160316540E0024F66E49
:10134E00390E0120F76E000E0220F86E0900F5CF5F
:10135E00D0F447D0CEC400F0CFC401F0000ECFBF02
:10136E00FF0E026E036E0036009001360236033613
:10137E0000360090013602360336CB0E0024F66E90
:10138E00380E0120F76E000E0220F86E0900F5CF20
:10139E0004F00900F5CF05F00900F5CF06F00900BD
:1013AE00F5CF07F0D5C400F0D6C401F0D7C402F0D3
:1013BE00D8C403F0BBEC00F0070E0014D06F300E53
:1013CE00D0270FD0DB51000AD8B4F2D6DB51C00AB9
:1013DE00D8B4EED6DB51800AD8B430D7DB51400AF0
:1013EE00B9E0C3C4E1FFC4C4E2FFD0C4E6FFC34BFF
:1013FE00C42BD94BDA2BCAD6D3A71AD0800E006EC7
:10140E00800ED219005C02E1D151000811E2C3C472
:10141E00E1FFC4C4E2FF200EE66EC34BC42BD94BD2
:10142E00DA2B010ED15F000ED25BD151D211EFE15A
:0E143E00F4EF02F0D9C400F0DAC401F012009D
:0E144C00ACB202D00000FCD7C3C4ADFF12004A
:10145A000401C56BC551C325E96E000EC421EA6EAD
:10146A00EE520DE0C551C325E96E000EC421EA6EA5
:10147A00EECFDCF4A8EC00F00401C52BEBD7120088
:10148A00B8C402F0B9C403F002C000F003C001F00E
:10149A00024A032A00C0E9FF01C0EAFFEE5201E056
:1014AA00F3D70401B851025C006EB9510358016EBA
:0A14BA00010E005E000E015A120040
:1014C400B8C404F0B9C405F004C0E9FF05C0EAFFDC
:1014D400EE5203E0044A052AF7D704C002F005C01F
:1014E40003F0044A052ABAC400F0BBC401F00401A5
:1014F400BA4BBB2B00C0E9FF01C0EAFF02C0E1FF09
:1015040003C0E2FFEECFE6FF02C0E9FF03C0EAFF3B
:10151400EE5201E0E2D7B8C400F0B9C401F0120001
:101524000401BE6BBAC401F0010E006E015004E068
:1015340000360090FF0FFBD700C0BDF4B8C4E9FF2C
:10154400B9C4EAFF0050EE14016E0152010ED8A492
:10155400000E006EBC51001A1AE0BB51000806E2EE
:1015640074EC02F074EC02F0BB07F7D7B8C4E9FFDF
:10157400B9C4EAFFBD51EE14016E0152010ED8A4A4
:10158400000E006EBC51001A02E0FF0EBE6FBEC416
:0415940000F0120051
:10159800B8C402F0B9C403F0BBC400F0BCC401F085
:1015A800010E0401BB5F000EBC5B0050011009E096
:1015B80002C0E1FF03C0E2FFBAC4E6FF024A032A01
:0C15C800EBD7B8C400F0B9C401F0120069
:1015D400BCC400F00401BC07005228E0B8C4E9FF11
:1015E400B9C4EAFFEE50000A0CE0B8C4E9FFB9C47C
:1015F400EAFFBAC4D9FFBBC4DAFFEE50DE1801E13A
:101604000FD0B8C4E9FFB9C4EAFFBAC4D9FFBBC458
:10161400DAFFDE50EE5C006E016A000E015A08D05B
:101624000401B84BB92BBA4BBB2BD2D7006A016A61
:021634001200A2
:10163600B8C4E9FFB9C4EAFFEE500401BA1905E1DE
:10164600B8C400F0B9C401F010D0B8C400F0B9C4F1
:1016560001F0B84BB92B00C0E9FF01C0EAFFEECF9D
:0C16660000F00052E5E1006A016A120089
:10167200030E0401B95D02E1E80EB85D14E3020E47
:10168200C36F070EC46FE80E046E030E056EB8C476
:1016920000F0B9C401F059EC02F0300E0024C56F1D
:1016A200BFEC02F00BD0020E0401C36F070EC46F31
:1016B200D00EC56F000EC66F7DEC02F0640E046E94
:1016C200000E056EB8C400F0B9C401F059EC02F086
:1016D2000A0E046E000E056E59EC02F008C000F00E
:1016E20009C001F0300E00240001CB6F0A0E046E17
:1016F200000E056EB8C400F0B9C401F059EC02F056
:101702000A0E046E000E056E59EC02F008C000F0DD
:1017120009C001F0300E0024CC6F0A0E046E000ED8
:10172200056EB8C400F0B9C401F059EC02F008C06B
:1017320000F009C001F0300E0024CE6F020E040149
:10174200C36F010EC46FBC0EC56F000EC66F7DEC79
:1017520002F0020E0401C36F080EC46FCB0EC56FF8
:10176200000EC66F7DEC02F0020E0401C36F0D0E77
:10177200C46F250EC56FBFEC02F00401BBAF0BD0E6
:10178200010EC36F070EC46FAE0EC56F000EC66F9B
:101792007DEC02F00BD0010E0401C36F070EC46F83
:1017A200AC0EC56F000EC66F7DEC02F0FF0E040199
:1017B200BA15BC6FBB517F0BBD6FBCC4BAF4BDC4BC
:1017C200BBF4640E046E000E056EBCC400F0BDC412
:1017D20001F059EC02F0300E00240001B76F0A0E3E
:1017E200046E000E056EBCC400F0BDC401F059ECDD
:1017F20002F00A0E046E000E056E59EC02F008C0EB
:1018020000F009C001F0300E0024B86F0A0E046E19
:10181200000E056EBCC400F0BDC401F059EC02F02C
:1018220008C000F009C001F0300E0024BA6F010EAA
:101832000401C36F010EC46FB00EC56F000EC66FF8
:101842007DEC02F0010E0401C36F080EC46FB70EE7
:10185200C56F000EC66F7DEC02F0D20E0401C36F9D
:08186200000EC46FF9DD120055
:10186A000401BB6BB8C4E9FFB9C4EAFFEECFBAF40E
:10187A00BA51000A0EE0BAC4C3F4E3DD0401BB2B7B
:10188A00BB51B825E96E000EB921EA6EEECFBAF463
:04189A00EFD7120072
:10189E00BD0E0401C16F040EC26FB8C4C3F4B9C447
:1018AE00C4F4BAC4C5F4BBC4C6F4BCC4C7F4C10EF8
:1018BE00C86F040EC96FEFEC02F000C0BFF401C098
:1018CE00C0F40050B825E16E0150B921E26EE66A0F
:0A18DE00BFC400F0C0C401F0120006
:1018E8000401BC6B010EBD6FBE6B89909280929013
:1018F80089905E0E0C6E800E0D6E0D2EFED70C2E8E
:10190800FCD7000089801A0E0D6E0D2EFED7000040
:1019180092801E0EBE6F80A00DD000000000000057
:101928000000BEC400F0BE07005203E1010E006EC5
:1019380060D0F1D780B001D0FDD780A001D0FDD70D
:10194800BC6BBC6B050EBC5D34E2010EBD6F010EB5
:10195800BD6FBD51080821E380B005D0000000002C
:1019680000000000F9D7270E0D6E0D2EFED70000DF
:1019780000000336039080A00ED003803B0E0D6E4E
:101988000D2EFED70000000080A005D0000000004A
:1019980000000000F9D7BD2BDCD7ED0EE16E000E7C
:1019A800E26EBC51E126D8B0E22A03C0E6FFBC2BA8
:1019B800C9D7EDC001F0006A0001EE510026000E03
:1019C8000122B8C4E1FFB9C4E2FF00C0E6FF01C0CC
:1019D800E6FFEFC001F0006AF0510026000E012278
:1019E800BAC4E1FFBBC4E2FF00C0E6FF01C0E6FFE6
:0419F800006A12006F
:1019FC00000E0401921902E1000E911934E091C419
:101A0C00E9FF92C4EAFFEE522EE093C4B8F494C4FA
:101A1C00B9F435DD00C0BCF491C4B8F492C4B9F487
:101A2C0093C4BAF494C4BBF4CFDD000E011802E1E8
:101A3C00000E001805E191C400F092C401F015D01D
:101A4C00010E04019125B86F000E9221B96F93C459
:101A5C00E9FF94C4EAFFEECFBAF4E7DD00C091F4DD
:0C1A6C0001C092F4C5D7006A016A1200A4
:101A78000301096B0A6B950E0401B86F040EB96F68
:101A8800650EBA6F390EBB6F000EBC6F91C4BDF402
:101A980092C4BEF400DF950EB86F040EB96FE1DE94
:101AA8000D0EC36FCFDC050E0B6E0F0E0C6EF10E14
:101AB8000D6E0D2EFED70C2EFCD70B2EFAD7190E55
:101AC80003010925E96E030E0A21EA6EEE503E0A6B
:101AD8001FE1096B0A6B190E0401B86F030EB96F89
:101AE800D0DC00C0BBF401C0BCF4190EB86F030E03
:101AF800B96FBA6B4DDD93C4B8F494C4B9F4B1DED0
:101B08000D0EC36F9FDC1A0E0401C36F9BDC0CD053
:101B1800010E03010925006E000E0A21016E00C0A6
:101B280009F301C00AF3CBD7070E0B6E170E0C6E24
:101B38006A0E0D6E03010D2EFDD70C2EFBD70B2E52
:101B4800F9D70000096B0A6B190E0401B86F030E70
:101B5800B96F97DC00C0BBF401C0BCF4190EB86FB4
:101B6800030EB96FBA6B14DD950EB86F040EB96F1A
:101B780088DC00C0BBF401C0BCF4950EB86F040E3D
:081B8800B96FBA6B05DD120014
:101B90000401916B926B0301096B0A6B190E092505
:101BA000E96E030E0A21EA6EEE500D0A0AE0190EE4
:101BB0000925E96E030E0A21EA6EEE500A0A01E0D9
:101BC0000BD0010E0925006E000E0A21016E00C027
:101BD00009F301C00AF301D001D0E0D7C00E04011F
:101BE000DD6F66EC00F0190E03010925E96E030EA6
:101BF0000A21EA6EEE500D0A23E0190E0925E96E5E
:101C0000030E0A21EA6EEECFDCF4A8EC00F0010E20
:101C100003010925006E000E0A21016E00C009F3C0
:101C200001C00AF30401914B922B000E921902E1BC
:101C30000F0E911904E1800EDD6F66EC00F0D3D732
:101C40000301096B0A6B190E0401B86F030EB96F1B
:101C50001CDC00C0BBF401C0BCF4190EB86F030E4D
:081C6000B96FBA6B99DC1200A8
:101C680091C4E1FF92C4E2FFE66A91C4B8F492C459
:101C7800B9F4D50E0401BA6F000EBB6F1FDC91C416
:101C8800B8F492C4B9F4E50EBA6F000EBB6F16DC57
:101C980089AA0AD091C4B8F492C4B9F4DB0EBA6F19
:101CA800000EBB6F0BDC09D091C4B8F492C4B9F430
:101CB800A10EBA6F000EBB6F01DC91C4B8F492C4D8
:101CC800B9F4510EBA6F000EBB6F62EC0AF089A826
:101CD8000BD091C4B8F492C4B9F4470EBA6F000E91
:101CE800BB6F62EC0AF00AD091C4B8F492C4B9F49C
:101CF800570EBA6F000EBB6F62EC0AF091C4B8F4CD
:101D080092C4B9F4540EBA6F000EBB6F62EC0AF0BD
:101D1800800EB86F0F0EB96F020EBA6F010EBB6F4F
:101D2800010EBC6F92EC0AF000520BE091C4B8F4BB
:101D380092C4B9F43D0EBA6F000EBB6F62EC0AF0A4
:101D48000AD091C4B8F492C4B9F4200EBA6F000E48
:101D5800BB6F62EC0AF091C4B8F492C4B9F41D0EDA
:101D6800BA6F000EBB6F62EC0AF0800EB86F0F0EF0
:101D7800B96F030EBA6F010EBB6F010EBC6F92EC08
:101D88000AF000520BE091C4B8F492C4B9F4330ECF
:101D9800BA6F000EBB6F62EC0AF00AD091C4B8F4B7
:101DA80092C4B9F4290EBA6F000EBB6F62EC0AF048
:101DB80091C4B8F492C4B9F4620EBA6F000EBB6F46
:101DC80062EC0AF0340EB86F020EB96F4C0EBA6F9F
:101DD800020EBB6F85DD0050000AD8A491D034C232
:101DE800B8F435C2B9F44CC2BAF44DC2BBF43DDC08
:101DF800640E046E000E056E4CC200F04DC201F078
:101E080059EC02F0300E00240001B76F0A0E046E80
:101E1800000E056E4CC200F04DC201F059EC02F004
:101E28000A0E046E000E056E59EC02F008C000F0B0
:101E380009C001F0300E0024B86F0A0E046E000EBF
:101E4800056E4CC200F04DC201F059EC02F008C01A
:101E580000F009C001F0300E0024BA6F91C4B8F444
:101E680092C4B9F48A0E0401BA6F000EBB6F62EC1B
:101E78000AF091C4B8F492C4B9F4B70EBA6F000E60
:101E8800BB6F62EC0AF091C4B8F492C4B9F4870E3F
:101E9800BA6F000EBB6F62EC0AF091C4B8F492C43A
:101EA800B9F49E0EBA6F000EBB6F62EC0AF091C4D3
:101EB800B8F492C4B9F4940EBA6F000EBB6F62EC1A
:101EC8000AF091C4B8F492C4B9F4CB0EBA6F000EFC
:101ED800BB6F62EC0AF091C4B8F492C4B9F4840EF2
:101EE800BA6F000EBB6F62EC0AF091C4B8F492C4EA
:101EF800B9F4740EBA6F000EBB6F62EC0AF015D01D
:101F0800040191C4B8F492C4B9F4650EBA6F000E16
:101F1800BB6F62EC0AF091C4B8F492C4B9F4810EB4
:101F2800BA6F000EBB6F62EC0AF091C4B8F492C4A9
:101F3800B9F4770EBA6F000EBB6F62EC0AF091C469
:101F4800B8F492C4B9F42C0EBA6F020EBB6F62ECEF
:101F58000AF091C4B8F492C4B9F4F20EBA6F000E44
:101F6800BB6F62EC0AF091C4B8F492C4B9F4620E83
:101F7800BA6F010EBB6F62EC0AF091C4B8F492C458
:101F8800B9F4580EBA6F010EBB6F62EC0AF091C437
:101F9800B8F492C4B9F41C0EBA6F020EBB6F62ECAF
:101FA8000AF091C4B8F492C4B9F4680EBA6F010E7D
:101FB800BB6F62EC0AF091C4B8F492C4B9F4650E30
:101FC800BA6F010EBB6F62EC0AF091C4B8F492C408
:101FD800B9F4530EBA6F010EBB6F62EC0AF091C4EC
:101FE800B8F492C4B9F4470EBA6F010EBB6F62EC35
:101FF8000AF091C4B8F492C4B9F445EC0AF012009E
:1020080091C403F092C404F093C405F094C406F09C
:1020180004019251945D02E19151935D2EE2955134
:102028000524016E96510620026E0250045C02E1FE
:102038000150035C22E295510526965106229551DE
:10204800032696510422010E035E000E045A010E67
:10205800055E000E065A05C0E9FF06C0EAFF03C088
:10206800E1FF04C0E2FFEECFE6FF010E955F000E30
:10207800965B95519611E7E118D09551961115E0A8
:1020880005C0E9FF06C0EAFF03C0E1FF04C0E2FFA4
:10209800EECFE6FF034A042A054A062A010E955F99
:1020A800000E965B95519611EBE191C400F092C435
:0420B80001F0120021
:1020BC0074CF01F071A202D07198718801C000F048
:0220CC00120000
:0A20CE00000E72B2010E006E120047
:1020D800AECF01F0ABA202D0AB98AB8801C000F044
:0220E8001200E4
:0A20EA00000E9EBA010E006E1200F7
:0C20F40072B201D0FDD791C473FF12003E
:0A210000000EA4BA010E006E1200DA
:10210A000134083609360450085E0550D8A0053C4B
:10211A00095E003601360F0E0C6E01340836093698
:10212A00045000A006D0085E0550D8A0053C095E00
:10213A0005D008260550D8B0053C092600360136D8
:10214A000C2EEBD700B006D0045008260550D8B0A4
:08215A00053C092600001200FB
:0A216200000EACB2010E006E120078
:10216C0094909492939A939893969394829082924B
:10217C00819481968198819A5DEC00F05DEC00F081
:10218C005DEC00F08188818A828052EC00F08290B4
:10219C005DEC00F0828052EC00F082905DEC00F07F
:1021AC00828052EC00F082905DEC00F0819A82808B
:1021BC0052EC00F082905DEC00F0828052EC00F06A
:1021CC00829081988184828052EC00F082905DEC48
:1021DC0000F08194818A828052EC00F08290819A86
:1021EC00828052EC00F082905DEC00F0828052EC28
:1021FC0000F08290818A828052EC00F082905DEC3B
:10220C0000F0819A828052EC00F082908184818669
:10221C008188818A828052EC00F082905DEC00F023
:06222C000201F281120024
:102232000450000A08E10550000A05E1FF0E006E95
:102242007F0E016E57D00D6A096A086A01500010AC
:10225200D8B4000C015005180A6E0ABE0D1E0B6A96
:1022620005AE05D0041E051E042AD8B4052A01AE07
:1022720005D0001E011E002AD8B4012A0150051003
:102282000A6E0ABE10D040DF0BB020D00DAE000C9B
:10229200001E011E002AD8B4012A081E091E082A9F
:1022A200D8B4092A000C05AE0DD001BE07D00150EA
:1022B200096E0050086E016A006AE8D7016A006A76
:1022C200002A000C011E001E0B2ADDD7082AD8B4F2
:1022D200092A0450085CD8A4D9D70550095CD8A4AF
:1022E200D5D7096A086A002AD8B4012A01AECED726
:0622F2000000FF0C1200C9
:1022F80004017F6B806B816B826B836B846BEA0E4E
:10230800805D02E1600E7F5D01E376D0190EB86F43
:10231800030EB96F45EC0AF000C083F401C084F4E1
:10232800005001105DE00B0E0C6E620E0D6E0D2E4E
:10233800FED70C2EFCD700007F4B802B190EB86FF0
:10234800030EB96F45EC0AF08451011802E1005000
:10235800831946E17B6B7C6B800E7C19006E800EC6
:102368008419005C02E183517B5D38E27D0E916F38
:10237800040E926F7E0E936F040E946F010E956F8C
:10238800000E966F3DDE190E7B25E96E030E7C214B
:10239800EA6EEECF7EF47D0EB86F040EB96F750E3F
:1023A800BA6F010EBB6F020EBC6FEAEC0AF0005068
:1023B800011010E081C401F082C402F00401814BD5
:1023C800822B000E021802E1020E011803E1C8EC8C
:1023D8000DF012D004017B4B7C2BBED7816B826B36
:1023E800060E0C6E300E0D6E0D2EFED70C2EFCD781
:0A23F80000007F4B802B83D71200FA
:102402007D0E0401B86F040EB96F8B0EBA6F390ED0
:10241200BB6F000EBC6F7BC4BDF47CC4BEF44FEC3A
:102422000CF07D0EB86F040EB96F35EC0CF00D0E8A
:08243200C36F26EC0AF0120052
:10243A000B0E0B6E260E0C6E5D0E0D6E0D2EFED75C
:10244A000C2EFCD70B2EFAD700000000190E04013F
:10245A00916F030E926FCC0E936F010E946FFEEC88
:10246A000CF0005001100CE1010E0401C36F010EC3
:10247A00C46FC10EC56F010EC66F7DEC02F0E2D0CB
:10248A000301096B0A6B190E0925E96E030E0A216D
:10249A00EA6EEE500D0A0AE0190E0925E96E030EDE
:1024AA000A21EA6EEE506E0A01E00BD0010E0925F0
:1024BA00006E000E0A21016E00C009F301C00AF382
:1024CA0001D001D0E0D7190E0925E96E030E0A21C1
:1024DA00EA6EEE502C0A0BE0010E0925006E000E82
:1024EA000A21016E00C009F301C00AF3ECD7020EFB
:1024FA000927000E0A2304017B6B7C6B800E006E99
:10250A00800E7C19005C02E17B510C081DE30B0E66
:10251A007B25E16E030E7C21E26E190E030109256B
:10252A00E96E030E0A21EA6EEECFE6FF010E0925D7
:10253A00006E000E0A21016E00C009F301C00AF301
:10254A0004017B4B7C2BDAD7010E03010925006EAF
:10255A00000E0A21016E00C009F301C00AF3010E40
:10256A00095D006E000E0A59016E190E0024E96E0B
:10257A00030E0120EA6EEE500A0AE6E1C00E0401DB
:10258A00DD6F66EC00F004017D6B7E6B190E0301B2
:10259A000925E96E030E0A21EA6EEE500D0A3DE0A6
:1025AA00800E04017E19006E800E005C02E11F0E8F
:1025BA007D5D33E2190E03010925E96E030E0A2136
:1025CA00EA6EEECFDCF4A8EC00F0B90E04017D252A
:1025DA00E16E030E7E21E26E190E03010925E96EF2
:1025EA00030E0A21EA6EEECFE6FF010E0925006E00
:1025FA00000E0A21016E00C009F301C00AF30401AA
:10260A007D4B7E2B000E7E1902E1100E7D1904E12E
:10261A00800EDD6F66EC00F0B9D70301096B0A6B17
:10262A00190E0401B86F030EB96F45EC0AF000C029
:10263A00BBF401C0BCF4190EB86F030EB96FBA6BC4
:0A264A00CCEC0AF00101F36B120062
:102654004E0E0401916F020E926F34EC0EF0D20E06
:10266400916F010E926F4E0E936F020E946F3CECBD
:042674000DF0120053
:10267800010E0401DD6F66EC00F0E80E0401B86F8E
:10268800000EB96F35EC0CF00D0EC36F26EC0AF096
:0226980012002E
:10269A007BC4E9FF7CC4EAFFEECF7DF4000E04019F
:1026AA007E6F000E7E6F000E7E1902E1200E7D19EC
:1026BA0007E0000E7E1902E1090E7D1901E003D040
:1026CA007B4B7C2BE5D77F6B806B816B826B000E1B
:1026DA007E1902E12D0E7D1905E1814B822B7B4B80
:1026EA007C2B08D0000E7E1902E12B0E7D1902E127
:1026FA007B4B7C2B7BC4E9FF7CC4EAFFEECF7DF4E5
:10270A00000E7E6F000E7E6F7DC4DCF4AFEC00F02D
:10271A00005219E07FC400F080C401F00A0E046E72
:10272A00000E056E31EC02F0300E7D5D026E000E79
:10273A007E59036E025000247F6F03500120806F80
:10274A007B4B7C2BD7D78151821108E07F5100083F
:10275A00006E80C401F0000E015604D07FC400F060
:06276A0080C401F0120022
:10277000F250026EF29E0500FF6A0150FE6E00509C
:08278000FD6E02BEF28E120094
:102788004C0E0201EE6F140EEF6FC30EF06F040EC5
:10279800F16FD80E0301016F200E026F000E036F58
:1027A800000E046FEA0E056F200E066F000E076F0D
:1027B800000E086F620E0201F46F210EF56F000E15
:1027C800F66F000EF76FAC8A900EAB6E948E949CE9
:0C27D8009EAA03D0AECF00F0FBD7120089
:1027E4009D8AA38AA398F28CF28E210ECD6E9E90C0
:1027F4003C0ECF6EB00ECE6E9D800201FE6BC00EFD
:04280400F26E12005E
:102808000301096B0A6B670E0401B86F040EB96FF8
:10281800730EBA6F390EBB6F000EBC6F65C4BDF482
:1028280066C4BEF44FEC0CF0670EB86F040EB96FB7
:0E28380035EC0CF00D0EC36F26EC0AF012000A
:10284600F40E0201EE6F200EEF6F910EF06F040E84
:10285600F16FBC0E0301016F200E026F000E036FB5
:10286600000E046F000E056F210E066F000E076F37
:10287600000E086FCE0E0201F46F200EF56F000EEB
:10288600F66F000EF76F728A900E716E938E939CA0
:0C289600A4AA03D074CF00F0FBD71200FE
:1028A20005C300F006C301F062DF005201E135D139
:1028B20001C300F002C301F05ADF00C0FBF211D1E4
:1028C2000201FB51960A03E1020EF36FF86B25D168
:1028D200FBC2FAF2030EF36F060E0401DE25E16E6F
:1028E200000EDF21E26EFBC2E6FF0201FB51F81B84
:1028F20014D1800EFB15016E0150000A23E1FBADDD
:102902000DD0060E0401DE25E16E000EDF21E26E1F
:10291200010E0201FA19006E00C0E6FFFBC2F9F2D5
:10292200FB51F81B030EFB15016E01C0FCF20150B6
:10293200000A03E1050EF36F04D0010EFD6F040ED1
:10294200F36F0CD0050E0401DE25E16E000EDF21CF
:10295200E26EFF0EE66E010E0201F36FDED0FB5156
:10296200A90A0DE1050E0401DE25E16E000EDF214C
:10297200E26EFF0EE66E010E0201F36FCED0FD5144
:10298200FC5D006E016A000E015A0050011013E056
:10299200FD05006E016A000E015A00500401DE2599
:1029A200E16E0150DF21E26EFBC2E6FF0201FB5144
:1029B200F81BFD2B13D0FD05006E016A000E015AB3
:1029C20000500401DE25E16E0150DF21E26EFBC200
:1029D200E6FF050E0201F36FFB51F81B9ED0F81DB6
:1029E200016E01C0F8F20150960A04E0F851A90AFA
:1029F20001E001D0F82BF851FB1903E1060EF36F49
:102A02000CD0050E0401DE25E16E000EDF21E26E20
:102A1200FF0EE66E010E0201F36F7FD0FB51A90A91
:102A220043E1010EF36F040E0401DE25E16E000E98
:102A3200DF21E26EFF0EE66E030EDE25E16E000E72
:102A4200DF21E26EFCC2E6FF010E0201FD6FFD51C5
:102A5200FC5D29E3FDC201F0020E006E015004E0AC
:102A620000360090FF0FFBD7F951001619E0FD0563
:102A7200006E016A000E015A00500401DE25026E4A
:102A82000150DF21036E02C0E9FF03C0EAFF010E1D
:102A9200EE18006E02C0E1FF03C0E2FF00C0E6FFD5
:102AA2000201FD2BD4D70CD0050E0401DE25E16E08
:102AB200000EDF21E26EFF0EE66E010E0201F36FE1
:102AC2002CD0050E0401DE25E16E000EDF21E26E40
:102AD200FF0EE66E010E0201F36F1FD0010EF36FBF
:102AE2001CD00201F351010AD8B4EAD6F351020A0A
:102AF200D8B4EED6F351030AD8B4FBD6F351040A84
:102B0200D8B42DD7F351050AD8B469D7F351060AC0
:0C2B120085E0F351070AD5E0E1D712007E
:102B1E000900F5CFE6FF0006FBE10106F9E1120020
:0C2B2E0094948294010E0201F36F1200D7
:102B3A00B6EC10F0010E0401DD6F66EC00F00C0E2D
:102B4A000401DD6F66EC00F0030E0401C36F030E8F
:102B5A00C46F130EC56F010EC66F7DEC02F0040E32
:102B6A000401C36F030EC46FF50EC56F000EC66F66
:102B7A007DEC02F0290E0B6E960E0C6E7F0E0D6E1A
:0E2B8A000D2EFED70C2EFCD70B2EFAD7120004
:102B9800340E0401B86F020EB96F4C0EBA6F020EF4
:102BA800BB6F74EC0CF00050000A0BE134C2B8F4AF
:102BB80035C2B9F44CC2BAF44DC2BBF439EC0BF0CF
:102BC80016D00401010EC36F010EC46FF80EC56F55
:102BD800010EC66F7DEC02F0020E0401C36F010EF8
:102BE800C46F060EC56F020EC66F7DEC02F01200B0
:102BF8005BC4F6F1000E0101F76F0A0E04015903D8
:102C0800F3CFF4F1F4CFF5F15A510101F427000E96
:102C1800F523000EF71902E1010EF6195FE1030E24
:102C28000401C36F010EC46F140EC56F020EC66F88
:102C38007DEC02F0640E046E000E056EF4C100F027
:102C4800F5C101F019EC11F00A0E046E000E056EC4
:102C580019EC11F008C000F009C001F0300E002492
:102C680002012C6F0A0E046E000E056EF4C100F00E
:102C7800F5C101F019EC11F00A0E046E000E056E94
:102C880019EC11F008C000F009C001F0300E002462
:102C980002012D6F0A0E046E000E056EF4C100F0DD
:102CA800F5C101F019EC11F008C000F009C001F0FD
:102CB800300E002402012F6F030E0401C36F080EAB
:102CC800C46F2C0EC56F020EC66F7DEC02F0310E7C
:102CD8000401C36F020EC46F2DEC0AF0000E01014F
:102CE800F71902E1020EF6195FE1040E0401C36F41
:102CF800010EC46F240EC56F020EC66F7DEC02F084
:102D0800640E046E000E056EF4C100F0F5C101F00A
:102D180019EC11F00A0E046E000E056E19EC11F094
:102D280008C000F009C001F0300E002402011C6F39
:102D38000A0E046E000E056EF4C100F0F5C101F034
:102D480019EC11F00A0E046E000E056E19EC11F064
:102D580008C000F009C001F0300E002402011D6F08
:102D68000A0E046E000E056EF4C100F0F5C101F004
:102D780019EC11F008C000F009C001F0300E002471
:102D880002011F6F040E0401C36F080EC46F1C0EEE
:102D9800C56F020EC66F7DEC02F0210E0401C36FF1
:0A2DA800020EC46F2DEC0AF01200B9
:102DB200670E0401B86F040EB96F7F0EBA6F390E39
:102DC200BB6F000EBC6F65C4BDF466C4BEF44FECAD
:102DD2000CF0670EB86F040EB96F35EC0CF00D0EE7
:0C2DE200C36F26EC0AF01DEC12F012008A
:102DEE00B90E0401916F030E926FEB0E936F010EED
:102DFE00946FFEEC0CF00050011042E0D20E040174
:102E0E007B6F010E7C6F01EC12F0010E0401DD6F81
:102E1E0066EC00F0010E0401C36F010EC46FE00EEC
:102E2E00C56F010EC66F7DEC02F0020E0A6E310EFA
:102E3E000B6E620E0C6E450E0D6E0D2EFED70C2E09
:102E4E00FCD70B2EFAD70A2EF8D70FDC010E040191
:102E5E00C36F010EC46F940EC56F010EC66F7DEC6D
:102E6E0002F00B0E0B6E260E0C6E5D0E0D6E0D2E01
:102E7E00FED70C2EFCD70B2EFAD700000000EED09A
:102E8E00B90E0401916F030E926F9E0E936F010E99
:102E9E00946FFEEC0CF00050011021E0010E0401C5
:102EAE00DD6F66EC00F0010E0401C36F010EC46FFE
:102EBE00890EC56F010EC66F7DEC02F02AEC13F081
:102ECE000B0E0B6E260E0C6E5D0E0D6E0D2EFED7BE
:102EDE000C2EFCD70B2EFAD700000000BFD0040139
:102EEE00B90E916F030E926F830E936F010E946F56
:102EFE00FEEC0CF00050011022E0898A010E040154
:102F0E00DD6F66EC00F0010E0401C36F010EC46F9D
:102F1E00B30EC56F010EC66F7DEC02F02AEC13F0F6
:102F2E000B0E0B6E260E0C6E5D0E0D6E0D2EFED75D
:102F3E000C2EFCD70B2EFAD7000000008FD0040108
:102F4E00B90E916F030E926FBA0E936F010E946FBE
:102F5E00FEEC0CF00050011022E0899A010E0401E3
:102F6E00DD6F66EC00F0010E0401C36F010EC46F3D
:102F7E00AB0EC56F010EC66F7DEC02F02AEC13F09E
:102F8E000B0E0B6E260E0C6E5D0E0D6E0D2EFED7FD
:102F9E000C2EFCD70B2EFAD7000000005FD00401D8
:102FAE00B90E916F030E926FA50E936F010E946F73
:102FBE00FEEC0CF00050011022E08988010E040195
:102FCE00DD6F66EC00F0010E0401C36F010EC46FDD
:102FDE00450EC56F020EC66F7DEC02F02AEC13F0A3
:102FEE000B0E0B6E260E0C6E5D0E0D6E0D2EFED79D
:102FFE000C2EFCD70B2EFAD7000000002FD00401A8
:10300E00B90E916F030E926F360E936F020E946F80
:10301E00FEEC0CF00050011021E08998010E040125
:10302E00DD6F66EC00F0010E0401C36F010EC46F7C
:10303E003D0EC56F020EC66F7DEC02F02AEC13F04A
:10304E000B0E0B6E260E0C6E5D0E0D6E0D2EFED73C
:0E305E000C2EFCD70B2EFAD70000000012003B
:10306C00C00E0401DD6F66EC00F0410E0401B86F78
:10307C00010EB96F35EC0CF00D0EC36F26EC0AF097
:10308C000B0E0B6E260E0C6E5D0E0D6E0D2EFED7FE
:10309C000C2EFCD70B2EFAD700000000190E0401E1
:1030AC00916F030E926F500E936F010E946FFEECA6
:1030BC000CF0005001100EE07CEC11F0190EB86F02
:1030CC00030EB96FBA6BA00EBB6F000EBC6FCCECCD
:1030DC000AF008D004014A0EC36F010EC46F2DEC28
:1030EC000AF0BED7010EDD6F66EC00F0010E040194
:1030FC00C36F010EC46F6B0EC56F010EC66F7DECF6
:10310C0002F0C00E0401DD6F66EC00F0780E0401D5
:10311C00B86F010EB96F35EC0CF00D0EC36F26ECC9
:08312C000AF07CEC11F0120026
:103134000B0E0B6E260E0C6E5D0E0D6E0D2EFED755
:103144000C2EFCD70B2EFAD7000000000301096BEC
:103154000A6B190E0925E96E030E0A21EA6EEE5078
:103164000D0A0AE0190E0925E96E030E0A21EA6E1A
:10317400EE500A0A01E00BD0010E0925006E000E84
:103184000A21016E00C009F301C00AF301D001D085
:10319400E0D7190E0401916F030E926FC50E936F61
:1031A400000E946FFEEC0CF0005001106CE0190E50
:1031B40003010925E96E030E0A21EA6EEE502C0A7A
:1031C4000BE0010E0925006E000E0A21016E00C0FD
:1031D40009F301C00AF3EBD7010E0925006E000EB6
:1031E4000A21016E00C009F301C00AF30401696BEE
:1031F4006A6B190E03010925E96E030E0A21EA6EB2
:10320400EE500D0A1EE0650E04016925E16E040E00
:103214006A21E26E190E03010925E96E030E0A21E3
:10322400EA6EEECFE6FF010E0925006E000E0A21BC
:10323400016E00C009F301C00AF30401694B6A2B53
:10324400D8D70401650E7B6F040E7C6F4DEC13F030
:1032540000C0C3F001C0C4F0190EB86F030EB96FFB
:1032640045EC0AF000C0BBF401C0BCF4190EB86F01
:10327400030EB96FBA6BCCEC0AF00301096B0A6B4D
:0A328400010E006E01D0006A120076
:10328E00828467C469F4F0C2E1FFF1C2E2FF960ED8
:10329E00E66EEEC200F0EFC201F0B8EC13F00401DE
:1032AE006851960A04E06851A90A01E002D06871DB
:1032BE00678DF0C2E1FFF1C2E2FF68C4E6FFEEC225
:1032CE0000F0EFC201F0B8EC13F00401690702013F
:1032DE00FF6BFF510401695D3BE30201FF510401E5
:1032EE006525E96E000E6621EA6EEE50960A0CE038
:1032FE000201FF5104016525E96E000E6621EA6E9A
:10330E00EE50A90A01E021D00201FF51040165250A
:10331E00016E000E6621026E01C0E9FF02C0EAFFD7
:10332E00010EEE18006E01C0E1FF02C0E2FF00C008
:10333E00E6FFFFC201F0040E006E015004E00036FD
:10334E000090FF0FFBD7005067130201FF2BC1D770
:10335E00800E04016711006E00C067F4F0C2E1FF39
:10336E00F1C2E2FF00C0E6FFEEC200F0EFC201F0D4
:10337E00B8EC13F00401685167190301006F0201E4
:10338E00FF6BFF510401695D22E30201FF5104014D
:10339E006525006E000E6621016E00C0D9FF01C0CA
:1033AE00DAFFDE500301001BF0C2E1FFF1C2E2FFC3
:1033BE0000C0E9FF01C0EAFFEECFE6FFEEC200F06B
:1033CE00EFC201F0B8EC13F00201FF2BDAD70301C4
:1033DE00001D016E01C000F30150960A04E0005179
:1033EE00A90A01E001D0002BF0C2E1FFF1C2E2FF19
:1033FE0000C3E6FFEEC200F0EFC201F0B8EC13F02E
:10340E00F0C2E1FFF1C2E2FFA90EE66EEEC200F0DD
:10341E00EFC201F0B8EC13F0F4C200F0F5C201F007
:10342E00B8EC13F00050000A01E1F6D782941200B6
:10343E00CAEC1CF0720ED36E0F01386B396B3A6BFF
:10344E000301096B0A6BB90E0401B86F030EB96F55
:10345E00BA6B3C0EBB6F000EBC6FCCEC0AF0899AB7
:10346E008998929A92989286928489968994B8862F
:10347E00010EB06EA00EAF6EAC84C4EC13F070866D
:10348E00010E766E150E756E728423EC14F0030E1B
:10349E000B6E080E0C6E770E0D6E0D2EFED70C2ECB
:1034AE00FCD70B2EFAD797EC15F00401596B5A6B1B
:1034BE005B6B5D6B5E6B5F6BF2EC13F004015D6B2F
:1034CE005E6B9DEC15F0010E0401DD6F66EC00F0F5
:1034DE000C0E0401DD6F66EC00F0F40E0B6E820E26
:1034EE000C6E050E0D6E0D2EFED70C2EFCD70B2E70
:1034FE00FAD7B5DD010EDD6F66EC00F002011E0E8F
:10350E00FE5D04E3CCEC15F00201FE6BFCEC15F055
:10351E00590E0401656F040E666F030E676F010E80
:10352E00686FAEDE0101F351010AD8A486D0FBDD2F
:10353E0000C063F4000E0401646F000E641902E112
:10354E00010E631971E1010EC36F100EC46F3B0EB5
:10355E00C56F010EC66F7DEC02F0150E0B6E4B0E95
:10356E000C6EBE0E0D6E0D2EFED70C2EFCD70B2E36
:10357E00FAD70000010E0401DD6F66EC00F0010EBB
:10358E000401C36F010EC46F070EC56F010EC66F27
:10359E007DEC02F0150E0B6E4B0E0C6EBE0E0D6E0C
:1035AE000D2EFED70C2EFCD70B2EFAD70000010ED7
:1035BE000401DD6F66EC00F0C3C065F4C4C066F4B0
:1035CE00D9EC16F0290E0B6E960E0C6E7F0E0D6E4C
:1035DE000D2EFED70C2EFCD70B2EFAD701DC010ECA
:1035EE000401DD6F66EC00F0C3C065F4C4C066F480
:1035FE0004EC14F0010E0401C36F010EC46FFD0E36
:10360E00C56F000EC66F7DEC02F07CEC11F0150E4E
:10361E000B6E4B0E0C6EBE0E0D6E0D2EFED70C2EBF
:10362E00FCD70B2EFAD70000636B646B0101F36BB2
:10363E00010E0401DD6F66EC00F0010E0401C36F94
:10364E00100EC46F1D0EC56F010EC66F7DEC02F01D
:10365E000B0E0401B86F030EB96FBA6B0E0EBB6F73
:10366E00000EBC6FCCEC0AF0B90EB86F030EB96F3A
:10367E00BA6B3C0EBB6F000EBC6FCCEC0AF05D510A
:0C368E00FF0A01E0FCD75D6B39D7FFD7C5
:1039940010EE1DF0310E006E030E016E9A0EF66EDF
:0E39A400360EF76E000EF86E8FEC15F0120066
:03369A000D0A0016
:09369D00494E31202D204F4E0052
:0A36A60020494E32202D204F4E0027
:0A36B000494E31202D204F46460000
:0A36BA00494E31202D204F464600F6
:0A36C40020544232202D204F4E000A
:0336CE000D0A00E2
:0336D1000D0A00DF
:0B36D40020544232202D204F464600BB
:0336DF000D0A00D1
:0F36E20053656E736F722031204572726F7200E4
:0336F1000D0A00BF
:0A36F4002054454D5020313A2000CB
:0336FE000D0A00B2
:0337010020250080
:033704002043005F
:0A3707002054454D5020313A2000B7
:0A3711002048554D4920313A2000B0
:03371B000D0A0094
:0B371E0020544231202D204F46460071
:0237290020007E
:02372B002D006F
:07372D0054454D50313A00F4
:0537340030302E3000D2
:0737390048554D49313A00EB
:02374000000087
:06374200434D54493A001A
:0537480030302E3000BE
:02374D0020005A
:03374F0020430014
:06375200494E464F3A000B
:0A37580020544231202D204F4E0076
:033762000D0A004D
:053765004154480D0075
:05376A0000000000005A
:03376F00204300F4
:083772002020475456542000AA
:0A377A00436C656172206D736700F7
:0C3784004E6577206D657373616765000A
:0A37900056414E20545559454E0095
:06379A006D73673A300078
:1037A0006E6F6E2D666C6F6174207072696E7466D8
:0137B0000018
:0737B100286E756C6C290005
:0637B8006D73673A310059
:0637BE00415445300D00EE
:0337C4000D0A00EB
:0637C7004572726F7200F2
:0337CD004F4B005F
:0537D000456E642E00AF
:0A37D5002048554D4920323A2000EB
:0337DF000D0A00D0
:0337E2000D0A00CD
:0337E5002025009C
:0A37E80054657874204D6F6465008D
:0337F2000D0A00BD
:0B37F50041542B434D47463D310D0071
:063800005442314F4E005E
:0B38060053656E6420696E666F7200EF
:0A38110048616E672043616C6C0093
:07381B00494E464F523F00E9
:063822005442324F4E003B
:08382800544231204F464600D6
:07383000544231204F4E000D
:073837005442314F464600E8
:0B383E004E6F206D65737361676500BD
:063849002B434D47520025
:0E384F0030393731353530333938000000005C
:0B385D0043616C6C696E672E2E2E001C
:0838680043616C6C206D6500EA
:013870000057
:02387100000055
:02387300000053
:0E38750053656E736F7231204E432020200089
:0E388300202020202020202020202020200097
:0838910054656D70323A20000D
:0538990030302E30006C
:03389E00202500E2
:0838A10048554D49323A200060
:0538A90030302E30005C
:0338AE00204300B4
:0238B100000015
:0738B3005232206F6666002F
:0838BA00544232204F46460043
:0738C200544232204F4E007A
:0238C9000000FD
:1038CB0001000000080000004000000000020000A2
:1038DB000010000000800000000004000000200029
:1038EB000000000100000008000000400000000084
:1038FB00010000000A00000064000000E803000063
:10390B0010270000A086010040420F00809698000F
:08391B0000E1F50500CA9A3B2A
:103923000100000010000000000100000010000072
:103933000000010000001000000000010000001062
:1039430030313233343536373839414243444546D2
:013953000073
:103954003031323334353637383961626364656601
:013964000062
:0E39650041542B434D47533D222573220D0044
:0C39730041542B434D47443D25640D009A
:0C397F0041542B434D47523D25640D0080
:08398B0041544425733B0D007B
:020000040030CA
:0D000100291F3CFFBF81FF0FC00FE00F4023
:00000001FF
