:02000000212DB0
:1000080070082000A3007108A2007208A1007308FC
:10001800A00080313D30E9000030EA009A2320003A
:10002800111C1C28BC0A11103C309700B0309600F7
:100038002308F0002208F1002108F2002008F3004C
:020048000900AD
:0C004A0000302000911A0130F000080086
:1000560023001908F1009D1C32281D121D16710877
:04006600F00008009E
:0C006A00003023009E180130F000080058
:1000760023009E18402800003B2820006808230023
:040086009A000800D4
:10008A00200068082400910014184C2849281108F7
:04009A00F00008006A
:10009E0020000E118030F300F201083072020318B6
:1000AE00672873086805F1007108003A031D61287E
:1000BE000E1062280E140E150E11F336F20A542885
:0200CE00080028
:0A00D00071088A0070088200080021
:1000DA0020008E106608E8004F206708E8004F20CD
:0400EA008E14080068
:1000EE002000F801F9011030FC00710DF80DF90D2A
:1000FE007408F8027508031C750FF90203188E2890
:10010E007408F80775080318750FF9070310F00D3A
:08011E00F10DFC0B7C28080028
:10012600033020005F02031D9A28E8305E02031C9C
:10013600F5280530E600E830F4000330F5005E08E7
:10014600F0005F08F10077200A30F4000030F50077
:1001560077207808F0007908F1007008E7006D2034
:100166000630E6006430F4000030F5005E08F0006A
:100176005F08F10077200A30F4000030F5007720A0
:100186007808F0007908F1007008E7006D20073064
:10019600E6000A30F4000030F5005E08F0005F0863
:1001A600F10077200A30F4000030F5007720780857
:1001B600F0007908F10080307007E7006D20083004
:1001C600E6000A30F4000030F5005E08F0005F0833
:1001D600F10077207808F0007908F1007008E70050
:1001E6006D203B290530E6000F30E7006D20063014
:1001F600E6006430F4000030F5005E08F0005F08A9
:10020600F10077200A30F4000030F50077207808F6
:10021600F0007908F1007008E7006D200730E6006D
:100226000A30F4000030F5005E08F0005F08F100C7
:1002360077200A30F4000030F50077207808F000C7
:100246007908F10080307007E7006D200830E6007D
:100256000A30F4000030F5005E08F0005F08F10097
:1002660077207808F0007908F1007008E7006D2023
:10027600E11F84290130E6001130E7006D200230CD
:10028600E6006430F4000030F5006008F000610814
:10029600F10077200A30F4000030F5007720780866
:1002A600F0007908F1007008E7006D200330E600E1
:1002B6000A30F4000030F5006008F0006108F10033
:1002C60077200A30F4000030F50077207808F00037
:1002D6007908F10080307007E7006D200430E600F1
:1002E6000A30F4000030F5006008F0006108F10003
:1002F60077207808F0007908F1007008E7006D2093
:1003060089290130E6000F30E7006D20FF306005D7
:10031600F00061087F39F1007008E0007108E10023
:100326000230E6006430F4000030F50077200A3031
:10033600F4000030F50077207808F0007908F10025
:100346007008E7006D200330E6000A30F400003044
:10035600F5006008F0006108F10077200A30F4002B
:100366000030F50077207808F0007908F100803039
:100376007007E7006D200430E6000A30F400003014
:10038600F5006008F0006108F10077207808F000B9
:0C0396007908F1007008E7006D200800F5
:1003A2000C302000E6000130E7006D200930E60045
:1003B200FF30E7006D200A30E6000930E7006D20CB
:1003C2000B30E6000730E7006D200F30E600013009
:1003D200E7006D200230FB000430FC00BA30FD0063
:1003E200FD0BF129FC0BF129FB0BF12900000F3069
:0803F200E600E7016D200800A0
:1003FA0020003108E40032080319062A01303106C8
:10040A00E4000C166003E3003A0886003B08870004
:10041A009630810041313808F0003908F10068202F
:10042A0020006408963A03191F2A6408A93A031996
:10043A001F2A222A0130E40660173A0886003B0880
:10044A0087006408810041313808F0003908F1005A
:10045A0068202000E10161086302031C682A610820
:10046A005E07840000305F3D85000008F1007108D6
:10047A00E5007108963A0319472A6508A93A03194B
:10048A00472A662A61085E07F10000305F3DF200E4
:10049A00710884007208850001300006F0007108B6
:1004AA00860072088700700881006108F100043034
:1004BA00F00071080319642AF035FF3E5F2A7008BC
:1004CA00E004E10A302A3A0886003B0887006008FF
:1004DA00810041313808F0003908F1006820200015
:1004EA0064086006E200E10161086302031C9C2AB9
:1004FA0061085E07F00000305F3DF100700884007B
:10050A00710885000008E2063A0886003B08870061
:10051A00700884007108850000088100413138089C
:10052A00F0003908F10068202000E10A792A6209FE
:10053A00F1007108E2007108963A0319A92A6208C3
:10054A00A93A0319A92AAA2AE20A3A0886003B0804
:10055A0087006208810041313808F0003908F1004B
:10056A00682020003A0886003B088700A9308100ED
:10057A0041313808F0003908F100682020003408B9
:10058A00F0003508F10068207008003A031DCE2AF1
:08059A00C32A20000C12080026
:1005A2002000E2010130E300E40122008D1221006B
:1005B2008D168D1222008D122F30FC00BF30FD00EF
:1005C200FD0BE12AFC0BE12A000000008D160D3024
:1005D200FD00FD0BEA2A21008D161E302000E400EA
:1005E2008D1EFF2A000000006408F000E40370087A
:1005F200031DFE2A0130F000642BF12A8D1A062B0E
:100602003530FD00FD0B032BFF2A8D1E0D2B2130F3
:10061200FD00FD0B0A2B062BE201E201053062020E
:100622000318432B0130E3000130E3006308083C68
:10063200031C372B8D1A202B000000001B2B1330BC
:10064200FD00FD0B222B00000000F3358D1E352B23
:1006520073141D30FD00FD0B2C2B000000008D1EBD
:10066200352B00000000302BE30A172B28308600C0
:1006720000308700620886070318870A7308810022
:10068200E20A0F2B2808F100F0012908F0070030D8
:10069200F13D5E0886005F088700700881007108DE
:1006A200413181002A08F100F0012B08F0070030E7
:1006B200F13D6008860061088700700881007108BA
:0806C20041318100F001080044
:1006CA0001302000E600E7016D200230E600E70174
:1006DA006D200330E600E7016D200430E600E701F3
:1006EA006D200530E600E7016D200630E600E701DF
:1006FA006D200730E600E7016D200830E600E701CB
:04070A006D20080056
:10070E0021302000980021009116111220001110A6
:10071E003C309700B0309600210011142000BC012F
:06072E00C0308B00080042
:1007340020005A08F0005B08F10068207008031DCF
:10074400A42BCF2C20005608F0005708F100682095
:1007540070082000D200B22C5208963A031DB52B23
:100764000230B300D401CF2C520831060319BF2B39
:100774005208323A0319BF2BC42B0330B30052087A
:10078400D406C62B0130B300CF2C32080319D42B66
:1007940040305205F1007108003A031DD42B01309A
:1007A400B300CF2CD21FEA2B0430B3005208D5007B
:1007B4005208D40603305205F1007108D1007108C3
:1007C400003A031DE72B0530B3000130D300F42BAE
:1007D40005306907860000306A3D8700FF308100DC
:1007E4000130B300CF2C5208A93A031D042C053064
:1007F4006907860000306A3D8700FF3081000130C0
:10080400B300CF2C53085102F000F1010030F13B4A
:10081400700871040319202C01305302F000F10117
:100824000030F13B70086907860071086A3D870053
:10083400520881005208D406D30A322C01305302E4
:10084400F000F1010030F13B70086907860071087F
:100854006A3D8700520881000530B3005208D4066F
:10086400CF2C5409F1007108D4007108963A031989
:10087400402C5408A93A0319402C412CD40A54089A
:100884005206031D482C0630B300522C053069076C
:10089400860000306A3D8700FF3081000130B300DC
:1008A400CF2C5208A93A031D992C0130B30004300F
:1008B4006907860000306A3D8700FF3081000330FD
:1008C4006907860000306A3D8700510881000130C5
:1008D400D30053085102031C982C5308F100023032
:1008E400F00071080319792CF035FF3E742C55087B
:1008F400F0050319962C01305302F000F101003089
:10090400F13B70086907F20071086A3DF300720850
:1009140084007308850001300006F0007208860028
:100924007308870070088100D30A6B2CA32C053050
:100934006907860000306A3D8700FF30810001307E
:10094400B300CF2C05306907860000306A3D87006C
:10095400FF3081000130B300CF2C0130B300CF2C25
:100964003308013A0319AE2B3308023A0319B62BA4
:100974003308033A0319C72B3308043A0319F52B38
:100984003308053A0319332C3308063A0319532C58
:0C0994003308073A0319A42CAF2C08000C
:1009A00012001E00F003031DD02CF103031DD02CF8
:0209B00008003D
:1009B20021000C1220000C120130B300B2015E08BB
:1009C200B1005E08963A0319EB2C5E08A93A0319A6
:1009D200EB2CF02C01305E06B100FF30B2000800B3
:1009E2003B302000B8000030B9006830BA00003057
:1009F200BB002B30D6000030D7000030D8000030CA
:100A0200D9002530DA000030DB000030DC00003095
:100A1200DD003530B4000030B5000030B6000030E3
:100A2200B70023009E1690309D0021008E170E13F2
:100A32002000911E202D23001908F000192D080016
:100A42002000A401A501A601A701A801A901AA01EC
:100A5200AB01AC01AD01AE01AF01B00123008D01CC
:100A62008C017230210099000E108E100E112000A0
:100A72000E108E100E1123009F158A309B009C01D0
:100A82001E15F1240230FB000430FC00BA30FD00D8
:100A9200FD0B492DFC0B492DFB0B492D0000A0300D
:100AA2002000DE00D9248723C101C201C301D12164
:100AB200652314303C02031CCF2D41080319CF2DAE
:100AC200C1012630DE000030DF002F30E0000030B0
:100AD200E100D1227008003A031DCF2D2608DE0066
:100AE2002708DF002F08E0003008E10093200A30D9
:100AF200F4000030F5002608F0002708F100772006
:100B02007008AD007108AE007008BD000A30F40034
:100B12000030F5002608F0002708F1007720780859
:100B2200F0007908F1007008A4007108A5007008AF
:100B3200BE000230BF003D30DE000030DF00033077
:100B4200E000FD210A30F4000030F5002F08F0002B
:100B52003008F10077207008AD007108AE0070080F
:100B6200BD000A30F4000030F5002F08F000300814
:100B7200F10077207808F0007908F1007008A400ED
:100B82007108A5007008BE000130BF003D30DE00D4
:100B92000030DF000330E000FD21BC015A2DD02DD2
:020000040001F9
:04000E00E4093314BA
:00000001FF
